{
    "contractName": "Land",
    "abi": [
        {
            "inputs": [],
            "stateMutability": "nonpayable",
            "type": "constructor"
        },
        {
            "inputs": [
                {
                    "internalType": "address",
                    "name": "",
                    "type": "address"
                }
            ],
            "name": "InspectorMapping",
            "outputs": [
                {
                    "internalType": "uint256",
                    "name": "id",
                    "type": "uint256"
                },
                {
                    "internalType": "address",
                    "name": "_addr",
                    "type": "address"
                },
                {
                    "internalType": "string",
                    "name": "name",
                    "type": "string"
                },
                {
                    "internalType": "uint256",
                    "name": "age",
                    "type": "uint256"
                },
                {
                    "internalType": "string",
                    "name": "designation",
                    "type": "string"
                },
                {
                    "internalType": "string",
                    "name": "city",
                    "type": "string"
                }
            ],
            "stateMutability": "view",
            "type": "function"
        },
        {
            "inputs": [
                {
                    "internalType": "uint256",
                    "name": "",
                    "type": "uint256"
                }
            ],
            "name": "LandRequestMapping",
            "outputs": [
                {
                    "internalType": "uint256",
                    "name": "reqId",
                    "type": "uint256"
                },
                {
                    "internalType": "address payable",
                    "name": "sellerId",
                    "type": "address"
                },
                {
                    "internalType": "address payable",
                    "name": "buyerId",
                    "type": "address"
                },
                {
                    "internalType": "uint256",
                    "name": "landId",
                    "type": "uint256"
                },
                {
                    "internalType": "enum Land.reqStatus",
                    "name": "requestStatus",
                    "type": "uint8"
                },
                {
                    "internalType": "bool",
                    "name": "isPaymentDone",
                    "type": "bool"
                }
            ],
            "stateMutability": "view",
            "type": "function"
        },
        {
            "inputs": [],
            "name": "ReturnAllLandIncpectorList",
            "outputs": [
                {
                    "internalType": "address[]",
                    "name": "",
                    "type": "address[]"
                }
            ],
            "stateMutability": "view",
            "type": "function"
        },
        {
            "inputs": [],
            "name": "ReturnAllLandList",
            "outputs": [
                {
                    "internalType": "uint256[]",
                    "name": "",
                    "type": "uint256[]"
                }
            ],
            "stateMutability": "view",
            "type": "function"
        },
        {
            "inputs": [],
            "name": "ReturnAllUserList",
            "outputs": [
                {
                    "internalType": "address[]",
                    "name": "",
                    "type": "address[]"
                }
            ],
            "stateMutability": "view",
            "type": "function"
        },
        {
            "inputs": [
                {
                    "internalType": "address",
                    "name": "",
                    "type": "address"
                }
            ],
            "name": "UserMapping",
            "outputs": [
                {
                    "internalType": "address",
                    "name": "id",
                    "type": "address"
                },
                {
                    "internalType": "string",
                    "name": "name",
                    "type": "string"
                },
                {
                    "internalType": "uint256",
                    "name": "age",
                    "type": "uint256"
                },
                {
                    "internalType": "string",
                    "name": "city",
                    "type": "string"
                },
                {
                    "internalType": "string",
                    "name": "aadharNumber",
                    "type": "string"
                },
                {
                    "internalType": "string",
                    "name": "panNumber",
                    "type": "string"
                },
                {
                    "internalType": "string",
                    "name": "document",
                    "type": "string"
                },
                {
                    "internalType": "string",
                    "name": "email",
                    "type": "string"
                },
                {
                    "internalType": "bool",
                    "name": "isUserVerified",
                    "type": "bool"
                }
            ],
            "stateMutability": "view",
            "type": "function"
        },
        {
            "inputs": [
                {
                    "internalType": "uint256",
                    "name": "_requestId",
                    "type": "uint256"
                }
            ],
            "name": "acceptRequest",
            "outputs": [],
            "stateMutability": "nonpayable",
            "type": "function"
        },
        {
            "inputs": [
                {
                    "internalType": "uint256",
                    "name": "_area",
                    "type": "uint256"
                },
                {
                    "internalType": "string",
                    "name": "_address",
                    "type": "string"
                },
                {
                    "internalType": "uint256",
                    "name": "landPrice",
                    "type": "uint256"
                },
                {
                    "internalType": "string",
                    "name": "_allLatiLongi",
                    "type": "string"
                },
                {
                    "internalType": "uint256",
                    "name": "_propertyPID",
                    "type": "uint256"
                },
                {
                    "internalType": "string",
                    "name": "_surveyNum",
                    "type": "string"
                },
                {
                    "internalType": "string",
                    "name": "_document",
                    "type": "string"
                }
            ],
            "name": "addLand",
            "outputs": [],
            "stateMutability": "nonpayable",
            "type": "function"
        },
        {
            "inputs": [
                {
                    "internalType": "address",
                    "name": "_addr",
                    "type": "address"
                },
                {
                    "internalType": "string",
                    "name": "_name",
                    "type": "string"
                },
                {
                    "internalType": "uint256",
                    "name": "_age",
                    "type": "uint256"
                },
                {
                    "internalType": "string",
                    "name": "_designation",
                    "type": "string"
                },
                {
                    "internalType": "string",
                    "name": "_city",
                    "type": "string"
                }
            ],
            "name": "addLandInspector",
            "outputs": [
                {
                    "internalType": "bool",
                    "name": "",
                    "type": "bool"
                }
            ],
            "stateMutability": "nonpayable",
            "type": "function"
        },
        {
            "inputs": [
                {
                    "internalType": "address",
                    "name": "_addr",
                    "type": "address"
                }
            ],
            "name": "changeContractOwner",
            "outputs": [],
            "stateMutability": "nonpayable",
            "type": "function"
        },
        {
            "inputs": [],
            "name": "documentId",
            "outputs": [
                {
                    "internalType": "uint256",
                    "name": "",
                    "type": "uint256"
                }
            ],
            "stateMutability": "view",
            "type": "function"
        },
        {
            "inputs": [
                {
                    "internalType": "address",
                    "name": "_addr",
                    "type": "address"
                }
            ],
            "name": "isContractOwner",
            "outputs": [
                {
                    "internalType": "bool",
                    "name": "",
                    "type": "bool"
                }
            ],
            "stateMutability": "view",
            "type": "function"
        },
        {
            "inputs": [
                {
                    "internalType": "address",
                    "name": "_id",
                    "type": "address"
                }
            ],
            "name": "isLandInspector",
            "outputs": [
                {
                    "internalType": "bool",
                    "name": "",
                    "type": "bool"
                }
            ],
            "stateMutability": "view",
            "type": "function"
        },
        {
            "inputs": [
                {
                    "internalType": "uint256",
                    "name": "id",
                    "type": "uint256"
                }
            ],
            "name": "isLandVerified",
            "outputs": [
                {
                    "internalType": "bool",
                    "name": "",
                    "type": "bool"
                }
            ],
            "stateMutability": "view",
            "type": "function"
        },
        {
            "inputs": [
                {
                    "internalType": "address",
                    "name": "_addr",
                    "type": "address"
                }
            ],
            "name": "isUserRegistered",
            "outputs": [
                {
                    "internalType": "bool",
                    "name": "",
                    "type": "bool"
                }
            ],
            "stateMutability": "view",
            "type": "function"
        },
        {
            "inputs": [
                {
                    "internalType": "address",
                    "name": "id",
                    "type": "address"
                }
            ],
            "name": "isUserVerified",
            "outputs": [
                {
                    "internalType": "bool",
                    "name": "",
                    "type": "bool"
                }
            ],
            "stateMutability": "view",
            "type": "function"
        },
        {
            "inputs": [
                {
                    "internalType": "uint256",
                    "name": "id",
                    "type": "uint256"
                }
            ],
            "name": "landPriceFun",
            "outputs": [
                {
                    "internalType": "uint256",
                    "name": "",
                    "type": "uint256"
                }
            ],
            "stateMutability": "view",
            "type": "function"
        },
        {
            "inputs": [
                {
                    "internalType": "uint256",
                    "name": "",
                    "type": "uint256"
                }
            ],
            "name": "lands",
            "outputs": [
                {
                    "internalType": "uint256",
                    "name": "id",
                    "type": "uint256"
                },
                {
                    "internalType": "uint256",
                    "name": "area",
                    "type": "uint256"
                },
                {
                    "internalType": "string",
                    "name": "landAddress",
                    "type": "string"
                },
                {
                    "internalType": "uint256",
                    "name": "landPrice",
                    "type": "uint256"
                },
                {
                    "internalType": "string",
                    "name": "allLatitudeLongitude",
                    "type": "string"
                },
                {
                    "internalType": "uint256",
                    "name": "propertyPID",
                    "type": "uint256"
                },
                {
                    "internalType": "string",
                    "name": "physicalSurveyNumber",
                    "type": "string"
                },
                {
                    "internalType": "string",
                    "name": "document",
                    "type": "string"
                },
                {
                    "internalType": "bool",
                    "name": "isforSell",
                    "type": "bool"
                },
                {
                    "internalType": "address payable",
                    "name": "ownerAddress",
                    "type": "address"
                },
                {
                    "internalType": "bool",
                    "name": "isLandVerified",
                    "type": "bool"
                }
            ],
            "stateMutability": "view",
            "type": "function"
        },
        {
            "inputs": [],
            "name": "landsCount",
            "outputs": [
                {
                    "internalType": "uint256",
                    "name": "",
                    "type": "uint256"
                }
            ],
            "stateMutability": "view",
            "type": "function"
        },
        {
            "inputs": [
                {
                    "internalType": "uint256",
                    "name": "id",
                    "type": "uint256"
                }
            ],
            "name": "makeItforSell",
            "outputs": [],
            "stateMutability": "nonpayable",
            "type": "function"
        },
        {
            "inputs": [
                {
                    "internalType": "uint256",
                    "name": "_requestId",
                    "type": "uint256"
                }
            ],
            "name": "makePayment",
            "outputs": [],
            "stateMutability": "payable",
            "type": "function"
        },
        {
            "inputs": [
                {
                    "internalType": "address payable",
                    "name": "_reveiver",
                    "type": "address"
                }
            ],
            "name": "makePaymentTestFun",
            "outputs": [],
            "stateMutability": "payable",
            "type": "function"
        },
        {
            "inputs": [
                {
                    "internalType": "address",
                    "name": "id",
                    "type": "address"
                }
            ],
            "name": "myAllLands",
            "outputs": [
                {
                    "internalType": "uint256[]",
                    "name": "",
                    "type": "uint256[]"
                }
            ],
            "stateMutability": "view",
            "type": "function"
        },
        {
            "inputs": [],
            "name": "myReceivedLandRequests",
            "outputs": [
                {
                    "internalType": "uint256[]",
                    "name": "",
                    "type": "uint256[]"
                }
            ],
            "stateMutability": "view",
            "type": "function"
        },
        {
            "inputs": [],
            "name": "mySentLandRequests",
            "outputs": [
                {
                    "internalType": "uint256[]",
                    "name": "",
                    "type": "uint256[]"
                }
            ],
            "stateMutability": "view",
            "type": "function"
        },
        {
            "inputs": [
                {
                    "internalType": "string",
                    "name": "_name",
                    "type": "string"
                },
                {
                    "internalType": "uint256",
                    "name": "_age",
                    "type": "uint256"
                },
                {
                    "internalType": "string",
                    "name": "_city",
                    "type": "string"
                },
                {
                    "internalType": "string",
                    "name": "_aadharNumber",
                    "type": "string"
                },
                {
                    "internalType": "string",
                    "name": "_panNumber",
                    "type": "string"
                },
                {
                    "internalType": "string",
                    "name": "_document",
                    "type": "string"
                },
                {
                    "internalType": "string",
                    "name": "_email",
                    "type": "string"
                }
            ],
            "name": "registerUser",
            "outputs": [],
            "stateMutability": "nonpayable",
            "type": "function"
        },
        {
            "inputs": [
                {
                    "internalType": "uint256",
                    "name": "_requestId",
                    "type": "uint256"
                }
            ],
            "name": "rejectRequest",
            "outputs": [],
            "stateMutability": "nonpayable",
            "type": "function"
        },
        {
            "inputs": [
                {
                    "internalType": "address",
                    "name": "_addr",
                    "type": "address"
                }
            ],
            "name": "removeLandInspector",
            "outputs": [],
            "stateMutability": "nonpayable",
            "type": "function"
        },
        {
            "inputs": [
                {
                    "internalType": "uint256",
                    "name": "id",
                    "type": "uint256"
                }
            ],
            "name": "requesteStatus",
            "outputs": [
                {
                    "internalType": "bool",
                    "name": "",
                    "type": "bool"
                }
            ],
            "stateMutability": "view",
            "type": "function"
        },
        {
            "inputs": [
                {
                    "internalType": "uint256",
                    "name": "_landId",
                    "type": "uint256"
                }
            ],
            "name": "requestforBuy",
            "outputs": [],
            "stateMutability": "nonpayable",
            "type": "function"
        },
        {
            "inputs": [],
            "name": "returnPaymentDoneList",
            "outputs": [
                {
                    "internalType": "uint256[]",
                    "name": "",
                    "type": "uint256[]"
                }
            ],
            "stateMutability": "view",
            "type": "function"
        },
        {
            "inputs": [
                {
                    "internalType": "uint256",
                    "name": "_requestId",
                    "type": "uint256"
                },
                {
                    "internalType": "string",
                    "name": "documentUrl",
                    "type": "string"
                }
            ],
            "name": "transferOwnership",
            "outputs": [
                {
                    "internalType": "bool",
                    "name": "",
                    "type": "bool"
                }
            ],
            "stateMutability": "nonpayable",
            "type": "function"
        },
        {
            "inputs": [],
            "name": "userCount",
            "outputs": [
                {
                    "internalType": "uint256",
                    "name": "",
                    "type": "uint256"
                }
            ],
            "stateMutability": "view",
            "type": "function"
        },
        {
            "inputs": [
                {
                    "internalType": "uint256",
                    "name": "_id",
                    "type": "uint256"
                }
            ],
            "name": "verifyLand",
            "outputs": [],
            "stateMutability": "nonpayable",
            "type": "function"
        },
        {
            "inputs": [
                {
                    "internalType": "address",
                    "name": "_userId",
                    "type": "address"
                }
            ],
            "name": "verifyUser",
            "outputs": [],
            "stateMutability": "nonpayable",
            "type": "function"
        }
    ],
    "bytecode": "608060405234801561001057600080fd5b50600080546001600160a01b031916331790556129f1806100326000396000f3fe6080604052600436106102045760003560e01c8063a846fc8f11610118578063d3b368c0116100a0578063e165af871161006f578063e165af8714610667578063e261f1e514610687578063edfbe247146106be578063f9c43bdf146106de578063fa024549146106fe57600080fd5b8063d3b368c0146105ba578063d61ff68c146105da578063d8513de41461060f578063de1176881461064757600080fd5b8063c6dcdc37116100e7578063c6dcdc3714610515578063ccfdc19b14610535578063cfb0ba7a14610555578063d196ebf214610585578063d251839b146105a557600080fd5b8063a846fc8f14610430578063ace417e014610445578063b10a30ed14610481578063c26e11eb146104f557600080fd5b80634d8131201161019b5780636cbf6cf81161016a5780636cbf6cf8146103985780637517e00f146103d257806378f7c83f146103f2578063995a8d96146104085780639c32e3b41461041b57600080fd5b80634d813120146103115780635114cb5214610331578063553a998d1461034457806364efa0021461036657600080fd5b80632d7788db116101d75780632d7788db1461029a5780633ead67b5146102bc578063499701b2146102dc5780634ba1f098146102f157600080fd5b806307973ccf14610209578063163f7522146102325780631c9afd0f1461026257806323393d7714610278575b600080fd5b34801561021557600080fd5b5061021f60025481565b6040519081526020015b60405180910390f35b34801561023e57600080fd5b5061025261024d3660046121aa565b61071e565b6040519015158152602001610229565b34801561026e57600080fd5b5061021f60035481565b34801561028457600080fd5b5061028d61074f565b60405161022991906121ce565b3480156102a657600080fd5b506102ba6102b5366004612212565b6107cf565b005b3480156102c857600080fd5b506102ba6102d73660046121aa565b61081c565b3480156102e857600080fd5b5061028d61089d565b3480156102fd57600080fd5b506102ba61030c366004612212565b6108fc565b34801561031d57600080fd5b506102ba61032c3660046121aa565b610944565b6102ba61033f366004612212565b61097d565b34801561035057600080fd5b50610359610ab9565b604051610229919061222b565b34801561037257600080fd5b506103866103813660046121aa565b610b42565b604051610229969594939291906122b2565b3480156103a457600080fd5b506102526103b3366004612212565b6000908152600e6020526040902060080154600160a81b900460ff1690565b3480156103de57600080fd5b506102ba6103ed3660046121aa565b610d19565b3480156103fe57600080fd5b5061021f60045481565b6102ba6104163660046121aa565b610f7b565b34801561042757600080fd5b5061028d610fb4565b34801561043c57600080fd5b5061028d611013565b34801561045157600080fd5b506102526104603660046121aa565b6001600160a01b031660009081526009602052604090206008015460ff1690565b34801561048d57600080fd5b506104e361049c366004612212565b600f602052600090815260409020805460018201546002830154600384015460049094015492936001600160a01b0392831693929091169160ff8082169161010090041686565b6040516102299695949392919061232b565b34801561050157600080fd5b506102ba610510366004612212565b611091565b34801561052157600080fd5b5061025261053036600461242a565b6110da565b34801561054157600080fd5b506102ba6105503660046124cf565b611229565b34801561056157600080fd5b5061021f610570366004612212565b6000908152600e602052604090206003015490565b34801561059157600080fd5b5061028d6105a03660046121aa565b61141c565b3480156105b157600080fd5b50610359611488565b3480156105c657600080fd5b506102ba6105d5366004612212565b6114fe565b3480156105e657600080fd5b506105fa6105f53660046121aa565b611695565b60405161022999989796959493929190612599565b34801561061b57600080fd5b5061025261062a366004612212565b6000908152600f6020526040902060040154610100900460ff1690565b34801561065357600080fd5b506102526106623660046121aa565b611a19565b34801561067357600080fd5b506102526106823660046121aa565b611a38565b34801561069357600080fd5b506106a76106a2366004612212565b611a61565b6040516102299b9a99989796959493929190612642565b3480156106ca57600080fd5b506102ba6106d93660046126dc565b611ce6565b3480156106ea57600080fd5b506102ba6106f9366004612212565b611ec0565b34801561070a57600080fd5b5061025261071936600461279e565b611ef6565b6001600160a01b0381166000908152600c602052604081205460ff161561074757506001919050565b506000919050565b6001600052601260209081527f71a67924699a20698523213e55fe499d539379d7769cd5567e2c45d583f815a380546040805182850281018501909152818152606093909291908301828280156107c557602002820191906000526020600020905b8154815260200190600101908083116107b1575b5050505050905090565b6000818152600f60205260409020600101546001600160a01b031633146107f557600080fd5b6000818152600f6020526040902060040180546002919060ff19166001835b021790555050565b6000546001600160a01b0316331461087b5760405162461bcd60e51b815260206004820152601960248201527f796f7520617265206e6f7420636f6e74726163744f776e65720000000000000060448201526064015b60405180910390fd5b600080546001600160a01b0319166001600160a01b0392909216919091179055565b336000908152601060209081526040918290208054835181840281018401909452808452606093928301828280156107c557602002820191906000526020600020908154815260200190600101908083116107b1575050505050905090565b6000818152600f60205260409020600101546001600160a01b0316331461092257600080fd5b6000818152600f6020526040902060040180546001919060ff19168280610814565b61094d33611a38565b61095657600080fd5b6001600160a01b03166000908152600960205260409020600801805460ff19166001179055565b6000818152600f60205260409020600201546001600160a01b0316331480156109cc575060016000828152600f6020526040902060049081015460ff16908111156109ca576109ca612315565b145b6109d557600080fd5b6000818152600f6020908152604080832060048101805460ff1916600390811790915501548352600e9091528082206008015490516101009091046001600160a01b0316916108fc34801591909102929091818181858888f19350505050158015610a44573d6000803e3d6000fd5b506000818152600f602090815260408220600401805461ff001916610100179055601390527f4155c2f711f2cdd34f8262ab8fb9b7020a700fe7b6948222152f7670d1fdf34d805460018101825591527f3ce2cb385edcbf7185fd469186dd769993781141b215a1a4715ebb7f94fd59ab0155565b6001600052600b60209081527f72c6bfb7988af3a1efa6568f02a999bc52252641c659d85961ca3d372b57d5cf80546040805182850281018501909152818152606093909291908301828280156107c557602002820191906000526020600020905b81546001600160a01b03168152600190910190602001808311610b1b575050505050905090565b60066020526000908152604090208054600182015460028301805492936001600160a01b0390921692610b74906127e5565b80601f0160208091040260200160405190810160405280929190818152602001828054610ba0906127e5565b8015610bed5780601f10610bc257610100808354040283529160200191610bed565b820191906000526020600020905b815481529060010190602001808311610bd057829003601f168201915b505050505090806003015490806004018054610c08906127e5565b80601f0160208091040260200160405190810160405280929190818152602001828054610c34906127e5565b8015610c815780601f10610c5657610100808354040283529160200191610c81565b820191906000526020600020905b815481529060010190602001808311610c6457829003601f168201915b505050505090806005018054610c96906127e5565b80601f0160208091040260200160405190810160405280929190818152602001828054610cc2906127e5565b8015610d0f5780601f10610ce457610100808354040283529160200191610d0f565b820191906000526020600020905b815481529060010190602001808311610cf257829003601f168201915b5050505050905086565b6000546001600160a01b03163314610d735760405162461bcd60e51b815260206004820152601960248201527f596f7520617265206e6f7420636f6e74726163744f776e6572000000000000006044820152606401610872565b6001600160a01b03811660009081526008602052604090205460ff16610ddb5760405162461bcd60e51b815260206004820152601860248201527f4c616e6420496e73706563746f72206e6f7420666f756e6400000000000000006044820152606401610872565b6001600160a01b03811660009081526008602090815260408220805460ff19169055600182526007905260008051602061299c83398151915254905b81811015610f76576001600052600760205260008051602061299c83398151915280546001600160a01b038516919083908110610e5657610e5661281f565b6000918252602090912001546001600160a01b031603610f645760016000819052600760205260008051602061299c83398151915290610e96908461284b565b81548110610ea657610ea661281f565b600091825260208083209091015460019092526007905260008051602061299c83398151915280546001600160a01b039092169183908110610eea57610eea61281f565b600091825260208083209190910180546001600160a01b0319166001600160a01b039490941693909317909255600190526007905260008051602061299c833981519152805480610f3d57610f3d61285e565b600082815260209020810160001990810180546001600160a01b0319169055019055505050565b80610f6e81612874565b915050610e17565b505050565b6040516001600160a01b038216903480156108fc02916000818181858888f19350505050158015610fb0573d6000803e3d6000fd5b5050565b336000908152601160209081526040918290208054835181840281018401909452808452606093928301828280156107c557602002820191906000526020600020908154815260200190600101908083116107b1575050505050905090565b6001600052601360209081527f4155c2f711f2cdd34f8262ab8fb9b7020a700fe7b6948222152f7670d1fdf34d80546040805182850281018501909152818152606093909291908301828280156107c557602002820191906000526020600020908154815260200190600101908083116107b1575050505050905090565b6000818152600e602052604090206008015461010090046001600160a01b031633146110bc57600080fd5b6000908152600e60205260409020600801805460ff19166001179055565b600080546001600160a01b031633146110f557506000611220565b6000546001600160a01b0316331461110c57600080fd5b6001600160a01b0386811660008181526008602090815260408083208054600160ff19909116811790915560008051602061299c83398151915280548083019091557fb2401e68d452ad3af4aed95d6e19d1a690ed00a9a5bee1b2b0a83b6028446a4f0180546001600160a01b03199081168717909155825160c081018452825481528085018781528185018e8152606083018e9052608083018d905260a083018c90529787526006909552929094208251815592519083018054909416951694909417909155905160028201906111e490826128db565b50606082015160038201556080820151600482019061120390826128db565b5060a0820151600582019061121890826128db565b506001925050505b95945050505050565b3360009081526009602052604090206008015460ff1661124857600080fd5b6003805490600061125883612874565b9091555050604080516101608101825260035480825260208083018b81528385018b8152606085018b9052608085018a905260a0850189905260c0850188905260e0850187905260006101008601819052336101208701526101408601819052938452600e9092529390912082518155925160018401555190919060028201906112e290826128db565b50606082015160038201556080820151600482019061130190826128db565b5060a0820151600582015560c0820151600682019061132090826128db565b5060e0820151600782019061133590826128db565b50610100828101516008929092018054610120850151610140909501516001600160a81b0319909116931515610100600160a81b031916939093176001600160a01b039094169091029290921760ff60a81b1916600160a81b911515919091021790555050336000908152600d602090815260408220600380548254600181810185559386528486200155601290925290547f71a67924699a20698523213e55fe499d539379d7769cd5567e2c45d583f815a3805492830181559092527f09d3634ec98b7a093f4c560246b0e10c09e0e06c46ca9be08ca93e6cf08d8d1301555050505050565b6001600160a01b0381166000908152600d602090815260409182902080548351818402810184019094528084526060939283018282801561147c57602002820191906000526020600020905b815481526020019060010190808311611468575b50505050509050919050565b60016000526007602090815260008051602061299c83398151915280546040805182850281018501909152818152606093909291908301828280156107c5576020028201919060005260206000209081546001600160a01b03168152600190910190602001808311610b1b575050505050905090565b3360009081526009602052604090206008015460ff16801561153857506000818152600e6020526040902060080154600160a81b900460ff165b61154157600080fd5b6005805490600061155183612874565b90915550506040805160c0810182526005548082526000848152600e60209081528482206008015461010090046001600160a01b0390811682860190815233868801908152606087018981526080880186815260a08901879052968652600f90945296909320855181559251600180850180549284166001600160a01b03199384161790559651600285018054919093169116179055516003820155905160048083018054949593949293909260ff191691849081111561161457611614612315565b021790555060a091909101516004909101805461ff00191661010092151583021790556000918252600e6020908152604080842060080154929092046001600160a01b031683526010815281832060058054825460018181018555938752848720015533855260118352928420925483549182018455928452922090910155565b600960205260009081526040902080546001820180546001600160a01b0390921692916116c1906127e5565b80601f01602080910402602001604051908101604052809291908181526020018280546116ed906127e5565b801561173a5780601f1061170f5761010080835404028352916020019161173a565b820191906000526020600020905b81548152906001019060200180831161171d57829003601f168201915b505050505090806002015490806003018054611755906127e5565b80601f0160208091040260200160405190810160405280929190818152602001828054611781906127e5565b80156117ce5780601f106117a3576101008083540402835291602001916117ce565b820191906000526020600020905b8154815290600101906020018083116117b157829003601f168201915b5050505050908060040180546117e3906127e5565b80601f016020809104026020016040519081016040528092919081815260200182805461180f906127e5565b801561185c5780601f106118315761010080835404028352916020019161185c565b820191906000526020600020905b81548152906001019060200180831161183f57829003601f168201915b505050505090806005018054611871906127e5565b80601f016020809104026020016040519081016040528092919081815260200182805461189d906127e5565b80156118ea5780601f106118bf576101008083540402835291602001916118ea565b820191906000526020600020905b8154815290600101906020018083116118cd57829003601f168201915b5050505050908060060180546118ff906127e5565b80601f016020809104026020016040519081016040528092919081815260200182805461192b906127e5565b80156119785780601f1061194d57610100808354040283529160200191611978565b820191906000526020600020905b81548152906001019060200180831161195b57829003601f168201915b50505050509080600701805461198d906127e5565b80601f01602080910402602001604051908101604052809291908181526020018280546119b9906127e5565b8015611a065780601f106119db57610100808354040283529160200191611a06565b820191906000526020600020905b8154815290600101906020018083116119e957829003601f168201915b5050506008909301549192505060ff1689565b600080546001600160a01b039081169083160361074757506001919050565b6001600160a01b03811660009081526008602052604081205460ff161561074757506001919050565b600e6020526000908152604090208054600182015460028301805492939192611a89906127e5565b80601f0160208091040260200160405190810160405280929190818152602001828054611ab5906127e5565b8015611b025780601f10611ad757610100808354040283529160200191611b02565b820191906000526020600020905b815481529060010190602001808311611ae557829003601f168201915b505050505090806003015490806004018054611b1d906127e5565b80601f0160208091040260200160405190810160405280929190818152602001828054611b49906127e5565b8015611b965780601f10611b6b57610100808354040283529160200191611b96565b820191906000526020600020905b815481529060010190602001808311611b7957829003601f168201915b505050505090806005015490806006018054611bb1906127e5565b80601f0160208091040260200160405190810160405280929190818152602001828054611bdd906127e5565b8015611c2a5780601f10611bff57610100808354040283529160200191611c2a565b820191906000526020600020905b815481529060010190602001808311611c0d57829003601f168201915b505050505090806007018054611c3f906127e5565b80601f0160208091040260200160405190810160405280929190818152602001828054611c6b906127e5565b8015611cb85780601f10611c8d57610100808354040283529160200191611cb8565b820191906000526020600020905b815481529060010190602001808311611c9b57829003601f168201915b5050506008909301549192505060ff808216916001600160a01b0361010082041691600160a81b909104168b565b336000908152600c602052604090205460ff1615611d0357600080fd5b336000908152600c60205260408120805460ff191660011790556002805491611d2b83612874565b90915550507f72c6bfb7988af3a1efa6568f02a999bc52252641c659d85961ca3d372b57d5cf805460018082019092557ffc2858506235d5502cafdfae2dcc7804b97258f4d77357c39b0f2a32aa2e6a50018054336001600160a01b031991821681179092556002546000908152600a6020908152604080832080548516861790558051610120810182528581528083018e81528183018e9052606082018d9052608082018c905260a082018b905260c082018a905260e0820189905261010082018590529584526009909252909120815181549093166001600160a01b0390931692909217825591519192909190820190611e2790826128db565b506040820151600282015560608201516003820190611e4690826128db565b5060808201516004820190611e5b90826128db565b5060a08201516005820190611e7090826128db565b5060c08201516006820190611e8590826128db565b5060e08201516007820190611e9a90826128db565b5061010091909101516008909101805460ff191691151591909117905550505050505050565b611ec933611a38565b611ed257600080fd5b6000908152600e60205260409020600801805460ff60a81b1916600160a81b179055565b6000611f0133611a38565b611f0a57600080fd5b6000838152600f6020526040812060040154610100900460ff1615159003611f345750600061218c565b60048054906000611f4483612874565b90915550506000838152600f602090815260408083206004808201805460ff1916909117905560028101546001600160a01b039081168552600d84528285206003830154815460018181018455928852958720909501949094559201549091168252812054905b818110156120f9576000858152600f6020908152604080832060038101546001909101546001600160a01b03168452600d909252909120805483908110611ff457611ff461281f565b9060005260206000200154036120e7576000858152600f602090815260408083206001908101546001600160a01b03168452600d90925290912090612039908461284b565b815481106120495761204961281f565b6000918252602080832090910154878352600f82526040808420600101546001600160a01b03168452600d909252912080548390811061208b5761208b61281f565b6000918252602080832090910192909255868152600f82526040808220600101546001600160a01b03168252600d909252208054806120cc576120cc61285e565b600190038181906000526020600020016000905590556120f9565b806120f181612874565b915050611fab565b506000848152600f60209081526040808320600301548352600e909152902060070161212584826128db565b5050506000828152600f602090815260408083206003810180548552600e9093528184206008908101805460ff1916905560029091015492548452922090910180546001600160a01b0390921661010002610100600160a81b031990921691909117905560015b92915050565b6001600160a01b03811681146121a757600080fd5b50565b6000602082840312156121bc57600080fd5b81356121c781612192565b9392505050565b6020808252825182820181905260009190848201906040850190845b81811015612206578351835292840192918401916001016121ea565b50909695505050505050565b60006020828403121561222457600080fd5b5035919050565b6020808252825182820181905260009190848201906040850190845b818110156122065783516001600160a01b031683529284019291840191600101612247565b6000815180845260005b8181101561229257602081850181015186830182015201612276565b506000602082860101526020601f19601f83011685010191505092915050565b8681526001600160a01b038616602082015260c0604082018190526000906122dc9083018761226c565b85606084015282810360808401526122f4818661226c565b905082810360a0840152612308818561226c565b9998505050505050505050565b634e487b7160e01b600052602160045260246000fd5b8681526001600160a01b038681166020830152851660408201526060810184905260c081016005841061236e57634e487b7160e01b600052602160045260246000fd5b83608083015282151560a0830152979650505050505050565b634e487b7160e01b600052604160045260246000fd5b600082601f8301126123ae57600080fd5b813567ffffffffffffffff808211156123c9576123c9612387565b604051601f8301601f19908116603f011681019082821181831017156123f1576123f1612387565b8160405283815286602085880101111561240a57600080fd5b836020870160208301376000602085830101528094505050505092915050565b600080600080600060a0868803121561244257600080fd5b853561244d81612192565b9450602086013567ffffffffffffffff8082111561246a57600080fd5b61247689838a0161239d565b955060408801359450606088013591508082111561249357600080fd5b61249f89838a0161239d565b935060808801359150808211156124b557600080fd5b506124c28882890161239d565b9150509295509295909350565b600080600080600080600060e0888a0312156124ea57600080fd5b87359650602088013567ffffffffffffffff8082111561250957600080fd5b6125158b838c0161239d565b975060408a0135965060608a013591508082111561253257600080fd5b61253e8b838c0161239d565b955060808a0135945060a08a013591508082111561255b57600080fd5b6125678b838c0161239d565b935060c08a013591508082111561257d57600080fd5b5061258a8a828b0161239d565b91505092959891949750929550565b6001600160a01b038a168152610120602082018190526000906125be8382018c61226c565b905089604084015282810360608401526125d8818a61226c565b905082810360808401526125ec818961226c565b905082810360a0840152612600818861226c565b905082810360c0840152612614818761226c565b905082810360e0840152612628818661226c565b9150508215156101008301529a9950505050505050505050565b60006101608d83528c60208401528060408401526126628184018d61226c565b90508a6060840152828103608084015261267c818b61226c565b90508860a084015282810360c0840152612696818961226c565b905082810360e08401526126aa818861226c565b95151561010084015250506001600160a01b039290921661012083015215156101409091015298975050505050505050565b600080600080600080600060e0888a0312156126f757600080fd5b873567ffffffffffffffff8082111561270f57600080fd5b61271b8b838c0161239d565b985060208a0135975060408a013591508082111561273857600080fd5b6127448b838c0161239d565b965060608a013591508082111561275a57600080fd5b6127668b838c0161239d565b955060808a013591508082111561277c57600080fd5b6127888b838c0161239d565b945060a08a013591508082111561255b57600080fd5b600080604083850312156127b157600080fd5b82359150602083013567ffffffffffffffff8111156127cf57600080fd5b6127db8582860161239d565b9150509250929050565b600181811c908216806127f957607f821691505b60208210810361281957634e487b7160e01b600052602260045260246000fd5b50919050565b634e487b7160e01b600052603260045260246000fd5b634e487b7160e01b600052601160045260246000fd5b8181038181111561218c5761218c612835565b634e487b7160e01b600052603160045260246000fd5b60006001820161288657612886612835565b5060010190565b601f821115610f7657600081815260208120601f850160051c810160208610156128b45750805b601f850160051c820191505b818110156128d3578281556001016128c0565b505050505050565b815167ffffffffffffffff8111156128f5576128f5612387565b6129098161290384546127e5565b8461288d565b602080601f83116001811461293e57600084156129265750858301515b600019600386901b1c1916600185901b1785556128d3565b600085815260208120601f198616915b8281101561296d5788860151825594840194600190910190840161294e565b508582101561298b5787850151600019600388901b60f8161c191681555b5050505050600190811b0190555056feb39221ace053465ec3453ce2b36430bd138b997ecea25c1043da0c366812b828a2646970667358221220ffc91e36c9b59b9abb2c48d56a8c7c4f372a3eee3f567e244f10f22f69005fba64736f6c63430008130033",
    "sourcePath": "c:/Users/hiten/Desktop/land_registry_updated/contracts/landContrat.sol",
    "compiler": {
        "name": "solc",
        "version": "0.8.19+commit.7dd6d404"
    },
    "functionHashes": {
        "InspectorMapping(address)": "64efa002",
        "LandRequestMapping(uint256)": "b10a30ed",
        "ReturnAllLandIncpectorList()": "d251839b",
        "ReturnAllLandList()": "23393d77",
        "ReturnAllUserList()": "553a998d",
        "UserMapping(address)": "d61ff68c",
        "acceptRequest(uint256)": "4ba1f098",
        "addLand(uint256,string,uint256,string,uint256,string,string)": "ccfdc19b",
        "addLandInspector(address,string,uint256,string,string)": "c6dcdc37",
        "changeContractOwner(address)": "3ead67b5",
        "documentId()": "78f7c83f",
        "isContractOwner(address)": "de117688",
        "isLandInspector(address)": "e165af87",
        "isLandVerified(uint256)": "6cbf6cf8",
        "isUserRegistered(address)": "163f7522",
        "isUserVerified(address)": "ace417e0",
        "landPriceFun(uint256)": "cfb0ba7a",
        "lands(uint256)": "e261f1e5",
        "landsCount()": "1c9afd0f",
        "makeItforSell(uint256)": "c26e11eb",
        "makePayment(uint256)": "5114cb52",
        "makePaymentTestFun(address)": "995a8d96",
        "myAllLands(address)": "d196ebf2",
        "myReceivedLandRequests()": "499701b2",
        "mySentLandRequests()": "9c32e3b4",
        "registerUser(string,uint256,string,string,string,string,string)": "edfbe247",
        "rejectRequest(uint256)": "2d7788db",
        "removeLandInspector(address)": "7517e00f",
        "requesteStatus(uint256)": "d8513de4",
        "requestforBuy(uint256)": "d3b368c0",
        "returnPaymentDoneList()": "a846fc8f",
        "transferOwnership(uint256,string)": "fa024549",
        "userCount()": "07973ccf",
        "verifyLand(uint256)": "f9c43bdf",
        "verifyUser(address)": "4d813120"
    },
    "gasEstimates": {
        "creation": {
            "codeDepositCost": "2147400",
            "executionCost": "26522",
            "totalCost": "2173922"
        },
        "external": {
            "InspectorMapping(address)": "infinite",
            "LandRequestMapping(uint256)": "11249",
            "ReturnAllLandIncpectorList()": "infinite",
            "ReturnAllLandList()": "infinite",
            "ReturnAllUserList()": "infinite",
            "UserMapping(address)": "infinite",
            "acceptRequest(uint256)": "26874",
            "addLand(uint256,string,uint256,string,uint256,string,string)": "infinite",
            "addLandInspector(address,string,uint256,string,string)": "infinite",
            "changeContractOwner(address)": "26773",
            "documentId()": "2373",
            "isContractOwner(address)": "2639",
            "isLandInspector(address)": "2629",
            "isLandVerified(uint256)": "2518",
            "isUserRegistered(address)": "2654",
            "isUserVerified(address)": "2617",
            "landPriceFun(uint256)": "2522",
            "lands(uint256)": "infinite",
            "landsCount()": "2375",
            "makeItforSell(uint256)": "26852",
            "makePayment(uint256)": "infinite",
            "makePaymentTestFun(address)": "infinite",
            "myAllLands(address)": "infinite",
            "myReceivedLandRequests()": "infinite",
            "mySentLandRequests()": "infinite",
            "registerUser(string,uint256,string,string,string,string,string)": "infinite",
            "rejectRequest(uint256)": "26797",
            "removeLandInspector(address)": "infinite",
            "requesteStatus(uint256)": "2556",
            "requestforBuy(uint256)": "274096",
            "returnPaymentDoneList()": "infinite",
            "transferOwnership(uint256,string)": "infinite",
            "userCount()": "2331",
            "verifyLand(uint256)": "26904",
            "verifyUser(address)": "26921"
        }
    }
}